:020000021000EC
:10F80000F894A89544B7407044BF409160004861A7
:10F810004093600040E0409360004FEF4DBF40E4F4
:10F820004EBF529A539A5A985B9A40E047B9549AFD
:10F83000559A569857985D9A5C9A0FEF1FEF2FEFE5
:10F840002A95F1F71A95D9F70A95C1F703E81FE849
:10F8500022EB2A95F1F71A95D9F70A95C1F700001E
:10F8600000004E990CC05D980000000000000000F0
:10F870005D9A00000000000000004E9BF4CF50E0B5
:10F8800060E070E000E010E020E09CD14E99FDCFF8
:10F8900022D1003011F43ED1F8CF0A3511F44DD108
:10F8A000F4CF023411F00C94000001D0EECFF4D06C
:10F8B00046F443D130E07ED14E99FDCF0CD10030DB
:10F8C00011F428D108950A3511F437D108950E3373
:10F8D00011F488D0F0CF332341F0013211F4B0D0CD
:10F8E000EACF0F3311F49CD0E6CF003320F00A3377
:10F8F00010F403D0E0CF34D1DECF0053083040F510
:10F9000041E04BBFECEAF9EF10E020E0E10FF21F1D
:10F9100016911123D9F00150C8F7115007914F9952
:10F92000FECF000000004FEF47B9000000005C9AD6
:10F9300000000000000008B90000000000005C9812
:10F9400040E047B9115050F7F8D0089509D1089513
:10F9500040E04BBFE0EEF0E01FE125E547912427B2
:10F960001150E1F7222391F740E04BBFE0EEF0E0C9
:10F97000085009F0E0EF1EE007910023A9F04F992D
:10F98000FECF000000004FEF47B9000000005C9A76
:10F9900000000000000008B90000000000005C98B2
:10F9A00040E047B9115041F7C8D008952344697227
:10F9B00065637420537472697020436F6E74726F44
:10F9C0006C6C657220426F6F746C6F616465720459
:10F9D000312E32030100041E97050401F80004359E
:10F9E0002E30000030E083E091E0B1E0A0E015E5CA
:10F9F000D9D04E99FDCF6FD00D9310270197C1F745
:10FA0000112359F43ED008EF11E02BB7E030F00796
:10FA1000210718F43FEF91D0089530E0A1D0089568
:10FA20005B9A01E122D02DD007911D91011729F495
:10FA30000197D1F782D05B98089592D05B98089592
:10FA40005B9A1FD003E011D001E10FD01AD00D90C6
:10FA50001D9001E00AD032960297C9F712D005E056
:10FA600004D001E102D007D0DBCF05D04FB707BFEC
:10FA7000E8954FBF089547B740FDFDCFF999FECFF8
:10FA80000895409100014BBFF0910101E0E080E05A
:10FA900091E0B1E0A2E00895689401E00BBFECEBC7
:10FAA000FAEF1791112349F075D04E99FDCF13D07D
:10FAB000003011F00117A9F3E894089544697265C4
:10FAC000637420537472697020436F6E74726F6C2C
:10FAD0006C65720000004E99FECF000000005D983A
:10FAE000000000000000000006B15D9A08954F99E3
:10FAF000FECF4FEF47B941E4000000005C9A0000E0
:10FB00000000000048B90000000000005C9840E0E0
:10FB100047B908954F99FECF4FEF47B94EE4000023
:10FB200000005C9A00000000000048B900000000DE
:10FB300000005C9840E047B908954F99FECF4FEF21
:10FB400047B94FE4000000005C9A0000000000008C
:10FB500048B90000000000005C9840E047B90895F3
:10FB60004F99FECF4FEF47B945E4000000005C9A83
:10FB700000000000000048B90000000000005C9890
:10FB800040E047B9089548E0540F19F4739509F41B
:10FB9000639508955A98561710F05B9801C05B9AC8
:10FBA000F2DF08955B98561710F05A9A01C05A98E0
:10FBB000EADF08955B98561710F05A9801C05A9AD8
:10FBC000E2DF0895E0DF561718F05B985A9802C0FC
:0EFBD0005B9A5A9A08950000000000000000A1
:00000001FF
